S01C00004469676974616C54656B6E696B50726F6A656B742E7372656305
S113000071C000008EC000008CC000008AC00000D7
S113001088C0000086C0000084C0000082C00000C8
S113002080C000007EC000007CC000007AC00000D8
S113003078C0000076C0000074C0000072C00000E8
S113004070C000006EC000006CC000006AC00000F8
S113005068C0000066C0000064C0000062C0000008
S11300602BC10000A2C100005CC00000C5C100009B
S113007058C0000056C0000054C0000052C0000028
S113008050C000004EC000004CC000004AC0000038
S113009048C0000046C0000044C0000042C0000048
S11300A040C000003EC000003CC000003AC0000058
S11300B038C0000036C0000034C0000032C0000068
S11300C030C000002EC000002CC000002AC0000078
S11300D028C0000026C0000024C0000022C0000088
S11300E020C0000011241FBECFEFD1E2DEBFCDBF80
S11300F000E00CBF12E0A0E0B2E0E8EAF6E000E0C5
S11301000BBF02C007900D92A238B107D9F722E0C5
S1130110A2E8B2E001C01D92A03FB207E1F778D097
S1130120C1C26ECFEF92FF920F931F93CF93DF93D1
S11301308C01E12CF12C5AC061E070E0F801EC0F65
S1130140FD1F80819ED0833041F461E070E089E03E
S113015092E0DAD0C0E0D0E01CC0823041F461E02B
S113016070E086E192E0D0D0C0E0D0E012C08130EF
S113017041F461E070E080E292E0C6D0C0E0D0E0FB
S113018008C0882331F061E070E08AE292E0BCD0DC
S113019036C0219602C0C0E0D0E0C330D10564F27D
S11301A08FE99FE00197F1F700C0000061E070E083
S11301B080E067D0833031F461E070E08DE492E058
S11301C0A3D011C0823031F461E070E086E192E0A6
S11301D09BD009C0813099F0882329F061E070E058
S11301E08AE292E091D09FEFE91AF90A83E0E816D7
S11301F0F1048CF261E070E08BE592E085D081E05F
S113020090E0DF91CF911F910F91FF90EF900895AF
S113021080E01ED05BD061E070E083E090E000D12C
S1130220EC01AE016FE382E003D0CE017BDFF9CFB6
S1130230FA016F3F39F491E06F3F08F490E0960FB4
S1130240909502C0962F9095808361839283089540
S11302507894811108C087E084B915B881E58CBD14
S113026081E090E008958F3F49F488E084B981E00B
S113027085B988E48CBD81E090E0089580E090E049
S1130280089594B19770973099F495B19E7F95B97C
S11302908EBD0DB407FEFDCF85B1816085B9613097
S11302A0710511F48EB50895672B21F481E008954A
S11302B080E0089580E008951F920F920FB60F9288
S11302C011240F900FBE0F901F90189578941092E0
S11302D0C50083E38093C400E1ECF0E08081886D85
S11302E08083E2ECF0E08081866080830895209131
S11302F0070230910802232BD1F3109208021092C6
S113030007028093C6000895EF92FF920F931F9304
S1130310CF93DF938C017B01C0E0D0E002C0E7DF24
S11303202196F801EC0FFD1F80818111F8CFEF2891
S113033021F08DE0DCDF8AE0DADFDF91CF911F91DD
S11303400F91FF90EF9008958091C600809306026C
S1130350E0918602F0918702E857FD4F8083209157
S11303608602309187022F5F3F4F3093870220939C
S113037086028D3039F481E090E090938502809379
S1130380840208952091840230918502232B61F028
S11303908A3051F481E090E090938302809382024A
S11303A0109287021092860208951F920F920FB640
S11303B00F9211240BB60F922F933F934F935F9399
S11303C06F937F938F939F93AF93BF93EF93FF9319
S11303D0BBDFFF91EF91BF91AF919F918F917F917F
S11303E06F915F914F913F912F910F900BBE0F90A2
S11303F00FBE0F901F9018951F920F920FB60F9279
S113040011248F939F9381E090E09093080280934E
S113041007029F918F910F900FBE0F901F90189518
S11304200F931F93CF93DF93869F8001879F100DB7
S1130430969F100D1124C8010DD0EC01009721F0F6
S1130440A80160E070E027D1CE01DF91CF911F9128
S11304500F9108950F931F93CF93DF9382309105EB
S113046010F482E090E0E091EE02F091EF0220E0DF
S113047030E0A0E0B0E0309719F140815181028171
S1130480138148175907C8F08417950769F4109722
S113049031F012960C93129713961C9327C0009375
S11304A0EE021093EF0222C02115310519F0421714
S11304B0530718F49A01BD01EF01DF01F801DBCF06
S11304C021153105F9F0281B390B2430310580F44E
S11304D08A819B816115710521F0FB0193838283DD
S11304E004C09093EF028093EE02FE01329644C062
S11304F0FE01E20FF31F8193919322503109398356
S113050028833AC02091EC023091ED02232B41F470
S113051020910202309103023093ED022093EC0209
S113052020910002309101022115310541F42DB7CB
S11305303EB74091040250910502241B350BE09113
S1130540EC02F091ED02E217F307A0F42E1B3F0B2F
S11305502817390778F0AC014E5F5F4F2417350731
S113056048F04E0F5F1F5093ED024093EC028193CD
S1130570919302C0E0E0F0E0CF01DF91CF911F91B1
S11305800F910895CF93DF93009709F481C0FC0184
S1130590329713821282A091EE02B091EF0210976B
S11305A081F420813181820F931F2091EC023091DC
S11305B0ED022817390751F5F093ED02E093EC02B0
S11305C067C0ED0120E030E0CE17DF0740F44A8138
S11305D05B819E0141155105F1F0EA01F5CFD3830A
S11305E0C28340815181840F951FC817D90759F4DC
S11305F088819981840F951F0296918380838A81D3
S11306009B81938382832115310529F4F093EF02B2
S1130610E093EE023DC0E901FB83EA8349915991DD
S1130620C40FD51FEC17FD0761F480819181840FFD
S1130630951F0296E90199838883828193819B8324
S11306408A83E0E0F0E012968D919C9113970097D5
S113065019F0FD01DC01F7CF8D919C9111979D015B
S11306602E5F3F4F820F931F2091EC023091ED02D9
S11306702817390769F4309729F41092EF02109281
S1130680EE0202C013821282B093ED02A093EC0238
S1130690DF91CF910895DC0101C06D93415050402A
S10B06A0E0F70895F894FFCF80
S11306A80000F0022000200100556E6B6F776E2069
S11306B86572726F7200435243206572726F7200E2
S11306C841434B206572726F7200526573706F6E8E
S11306D87365206572726F722C207061636B616739
S11306E865207465726D696E6174656400556E6B1E
S11306F86E6F776E206572726F72005472616E73DA
S11307086D697373696F6E206572726F722C2070D5
S113071861636B616765207465726D696E61746588
S1050728640067
S9030000FC
