:1000000071C000008EC000008CC000008AC00000DB
:1000100088C0000086C0000084C0000082C00000CC
:1000200080C000007EC000007CC000007AC00000DC
:1000300078C0000076C0000074C0000072C00000EC
:1000400070C000006EC000006CC000006AC00000FC
:1000500068C0000066C0000064C0000062C000000C
:100060009EC00000F5C000005CC0000018C1000088
:1000700058C0000056C0000054C0000052C000002C
:1000800050C000004EC000004CC000004AC000003C
:1000900048C0000046C0000044C0000042C000004C
:1000A00040C000003EC000003CC000003AC000005C
:1000B00038C0000036C0000034C0000032C000006C
:1000C00030C000002EC000002CC000002AC000007C
:1000D00028C0000026C0000024C0000022C000008C
:1000E00020C0000011241FBECFEFD1E2DEBFCDBF84
:1000F00000E00CBF12E0A0E0B2E0EAECF2E000E0C9
:100100000BBF02C007900D92A430B107D9F722E0CF
:10011000A4E0B2E001C01D92AE36B207E1F702D012
:10012000D2C06ECF80E007D044D061E070E084E7B9
:100130001BD050D0FACF7894811108C08FE084B9D9
:1001400015B88AE58CBD81E090E008958F3F49F4B1
:1001500088E084B981E085B988E48CBD81E090E0D5
:10016000089580E090E0089594B19770973099F4E5
:1001700095B1916095B98EBD0DB407FEFDCF85B1E7
:100180008E7F85B96130710511F48EB50895672BA6
:1001900021F481E0089580E0089580E008951F92A1
:1001A0000F920FB60F9211240F900FBE0F901F9059
:1001B000189578941092C50083E38093C400E1EC15
:1001C000F0E08081886D8083E2ECF0E080818660E1
:1001D000808308952091010230910202232BD1F3F4
:1001E00010920202109201028093C600089580913D
:1001F000C60080930002E0910802F0910902E65FD8
:10020000FD4F808320910802309109022F5F3F4FFC
:1002100030930902209308028D3039F481E090E098
:100220009093070280930602089520910602309170
:100230000702232B61F08A3051F481E090E0909323
:100240000502809304021092090210920802089598
:100250001F920F920FB60F9211240BB60F922F938D
:100260003F934F935F936F937F938F939F93AF933E
:10027000BF93EF93FF93BBDFFF91EF91BF91AF91DE
:100280009F918F917F916F915F914F913F912F91AE
:100290000F900BBE0F900FBE0F901F9018951F92DE
:1002A0000F920FB60F9211248F939F9381E090E0ED
:1002B00090930202809301029F918F910F900FBE45
:0A02C0000F901F901895F894FFCFDF
:0402CA00200100000F
:00000001FF
