:1000000071C000008EC000008CC000008AC00000DB
:1000100088C0000086C0000084C0000082C00000CC
:1000200080C000007EC000007CC000007AC00000DC
:1000300078C0000076C0000074C0000072C00000EC
:1000400070C000006EC000006CC000006AC00000FC
:1000500068C0000087C0000064C0000062C00000EB
:100060005AC20000FCC200005CC000000CC30000CB
:1000700058C0000081C0000054C0000052C0000001
:1000800050C000004EC000004CC000004AC000003C
:1000900048C0000046C0000044C0000042C000004C
:1000A00040C000003EC000003CC000003AC000005C
:1000B00038C0000036C0000034C0000032C000006C
:1000C00030C000002EC000002CC000002AC000007C
:1000D00028C0000026C0000024C0000022C000008C
:1000E00020C0000011241FBECFEFD1E2DEBFCDBF84
:1000F00000E00CBF12E0A0E0B2E0E0E8F9E000E0D0
:100100000BBF02C007900D92A633B107D9F722E0CA
:10011000A6E3B2E001C01D92A634B207E1F76CD1AC
:100120002DC46ECF82E084BD94E095BD9CE797BD61
:1001300098BD80936E0085BB81E090E00895F2DF6A
:1001400080E680937C008DEA80937A0083E0809340
:100150007B0008958091790090E09093370280931E
:10016000360208951F920F920FB60F9211240F902E
:100170000FBE0F901F9018951F920F920FB60F92FF
:1001800011240BB60F922F933F934F935F936F936E
:100190007F938F939F93AF93BF93EF93FF93DADF98
:1001A000FF91EF91BF91AF919F918F917F916F914F
:1001B0005F914F913F912F910F900BBE0F900FBE0B
:1001C0000F901F9018950F931F93CF93DF93CDB788
:1001D000DEB72A970FB6F894DEBF0FBECDBF8C01F5
:1001E000DC0114968C918887813079F461E070E0AD
:1001F00082E090E05CD29A878987F8012581DC0152
:100200002C93268111962C931AC08230C1F461E0A0
:1002100070E084E090E04BD2FC019A878987D80196
:1002200015968C911597808316968C9116978183DD
:1002300017968C911797828318968C91838385E00B
:10024000FE013696DE01119601900D928A95E1F736
:1002500029813A814B815C816D8170E080E090E082
:100260002A960FB6F894DEBF0FBECDBFDF91CF91B7
:100270001F910F910895CF93DF93962FC72FD82FFB
:1002800061E070E0892F2CD1833041F461E070E0AF
:1002900089E092E071D18FEF9FEFABC0823041F4E3
:1002A00061E070E082E192E067D18FEF9FEFA1C043
:1002B000813041F461E070E08BE192E05DD18FEF3D
:1002C0009FEF97C0882341F061E070E084E292E004
:1002D00053D18FEF9FEF8DC061E070E08C2F00D184
:1002E000833041F461E070E089E092E045D18FEF26
:1002F0009FEF7FC0823041F461E070E082E192E0E4
:100300003BD18FEF9FEF75C0813041F461E070E029
:100310008BE192E031D18FEF9FEF6BC0882341F0EA
:1003200061E070E084E292E027D18FEF9FEF61C03F
:1003300061E070E08D2FD4D0833041F461E070E053
:1003400089E092E019D18FEF9FEF53C0823041F4E2
:1003500061E070E082E192E00FD18FEF9FEF49C042
:10036000813041F461E070E08BE192E005D18FEFE4
:100370009FEF3FC0882351F061E070E084E292E09B
:10038000FBD08FEF9FEF35C0019602C080E090E078
:10039000883C9105CCF361E070E080E0A1D083302F
:1003A00041F461E070E089E092E0E6D08FEF9FEFEA
:1003B00020C0823041F461E070E082E192E0DCD064
:1003C0008FEF9FEF16C0813091F0811108C061E07E
:1003D00070E08DE292E0D0D08FEF9FEF0AC061E035
:1003E00070E084E292E0C8D08FEF9FEF02C081E01E
:1003F00090E0DF91CF910895CF93DF93CDB7DEB733
:1004000029970FB6F894DEBF0FBECDBF80E04DD068
:100410008CD095DE80913C0290913D02892B29F091
:10042000CBD010923D0210923C0280913A02909102
:100430003B02892BE9F08091400290914102C3DE9A
:1004400029833A834B835C836D8300914002109132
:10045000410261E070E084E690E029D1909341028E
:1004600080934002C801D5D110923B0210923A020B
:10047000AE014A5F5F4F6FE382E00FD06E817F81F4
:1004800088859985F8DEAE014F5F5F4F6FE382E0AC
:100490000BD08091360263D0BDCFFA01962F909594
:1004A00080836183928308950895789481110AC0AE
:1004B00087E084B915B882E58CBD81E08DBD81E00F
:1004C00090E008958F3F49F488E084B981E085B9D0
:1004D00080E48CBD81E090E0089580E090E0089594
:1004E00094B19770973099F495B19E7F95B98EBD70
:1004F0000DB407FEFDCF85B1816085B9613071050E
:1005000011F48EB50895672B21F481E0089580E001
:10051000089580E008951F920F920FB60F92112454
:100520000F900FBE0F901F90189561E070E084E669
:1005300090E0BDD090934102809340027894109255
:10054000C50083E38093C400E1ECF0E08081886D16
:100550008083E2ECF0E080818660808308952091C2
:10056000070230910802232BD1F310920802109257
:1005700007028093C6000895EF92FF920F931F9396
:10058000CF93DF938C017B01C0E0D0E002C0E7DFB6
:100590002196F801EC0FFD1F80818111F8CFEF2823
:1005A00021F08DE0DCDF8AE0DADFDF91CF911F916F
:1005B0000F91FF90EF900895CF93DF931F921F92BA
:1005C000CDB7DEB72091C6002093060280913E028F
:1005D00090913F02E0914002F0914102E80FF91F33
:1005E000208380913E0290913F020397A9F4E0910D
:1005F0004002F09141028081853571F481818A3A0F
:1006000059F48281898383818A83CE0101968AD1BC
:10061000909339028093380220913E0230913F023C
:1006200080913802909139022817390741F4892BBB
:1006300031F081E090E090933B0280933A02809108
:100640003E0290913F02019690933F0280933E02BA
:1006500081E090E00F900F90DF91CF9108951F926D
:100660000F920FB60F9211248F939F9381E090E029
:1006700090933D0280933C029F918F910F900FBE0B
:100680000F901F9018951F920F920FB60F92112482
:100690008F939F9381E090E09093080280930702EC
:1006A0009F918F910F900FBE0F901F9018950F93F1
:1006B0001F93CF93DF93869F8001879F100D969F96
:1006C000100D1124C8010DD0EC01009721F0A801F4
:1006D00060E070E044D1CE01DF91CF911F910F9186
:1006E00008950F931F93CF93DF938230910510F4F9
:1006F00082E090E0E0914402F091450220E030E099
:10070000A0E0B0E0309719F140815181028113815E
:1007100048175907C8F08417950769F4109731F006
:1007200012960C93129713961C9327C000934402C1
:100730001093450222C02115310519F042175307C5
:1007400018F49A01BD01EF01DF01F801DBCF21159B
:100750003105F9F0281B390B2430310580F48A81EA
:100760009B816115710521F0FB019383828304C095
:100770009093450280934402FE01329644C0FE01EC
:10078000E20FF31F8193919322503109398328831B
:100790003AC02091420230914302232B41F4209130
:1007A00002023091030230934302209342022091CF
:1007B0000002309101022115310541F42DB73EB7F9
:1007C0004091040250910502241B350BE091420236
:1007D000F0914302E217F307A0F42E1B3F0B2817FA
:1007E000390778F0AC014E5F5F4F2417350748F0AA
:1007F0004E0F5F1F509343024093420281939193A7
:1008000002C0E0E0F0E0CF01DF91CF911F910F91A6
:100810000895CF93DF93009709F481C0FC013297CC
:1008200013821282A0914402B0914502109781F484
:1008300020813181820F931F209142023091430227
:100840002817390751F5F0934302E093420267C03D
:10085000ED0120E030E0CE17DF0740F44A815B81F4
:100860009E0141155105F1F0EA01F5CFD383C28312
:1008700040815181840F951FC817D90759F4888189
:100880009981840F951F0296918380838A819B8131
:10089000938382832115310529F4F0934502E09377
:1008A00044023DC0E901FB83EA8349915991C40F99
:1008B000D51FEC17FD0761F480819181840F951F8E
:1008C0000296E90199838883828193819B838A833D
:1008D000E0E0F0E012968D919C911397009719F04B
:1008E000FD01DC01F7CF8D919C9111979D012E5F49
:1008F0003F4F820F931F20914202309143022817ED
:10090000390769F4309729F4109245021092440295
:1009100002C013821282B0934302A0934202DF917D
:10092000CF910895FC0188279927E89421912032DE
:10093000E9F3293010F02E30C8F32B3239F02D3284
:1009400031F4689403C012D0820F911D219120537D
:100950002A30C8F31EF4909581959F4F0895DC01CD
:1009600001C06D9341505040E0F708957AE0979FA1
:10097000902D879F802D910D11240895F894FFCF1D
:100980000000460220002001004552523A2031303A
:1009900031004552523A20313032004552523A200D
:1009A000313033004552523A2031303400455252F2
:0609B0003A203130350051
:00000001FF
