:1000000071C000008EC000008CC000008AC00000DB
:1000100088C0000086C0000084C0000082C00000CC
:1000200080C000007EC000007CC000007AC00000DC
:1000300078C0000076C0000074C0000072C00000EC
:1000400070C000006EC0000093C000006AC00000D5
:1000500068C0000066C0000064C0000062C000000C
:1000600034C30000D3C300005CC000005AC00000CD
:1000700058C00000B1C0000054C0000052C00000D1
:1000800050C000004EC000004CC000004AC000003C
:1000900048C0000046C0000044C0000042C000004C
:1000A00040C000003EC000003CC000003AC000005C
:1000B00038C0000036C0000034C0000032C000006C
:1000C00030C000002EC000002CC000002AC000007C
:1000D00028C0000026C0000024C0000022C000008C
:1000E00020C0000011241FBECFEFD1E2DEBFCDBF84
:1000F00000E00CBF12E0A0E0B2E0E6E9FEE000E0C4
:100100000BBF02C007900D92AE30B107D9F729E0BE
:10011000AEE0B2E001C01D92AA3FB207E1F70DD2F6
:10012000B8C66ECF8BE0809381008FE890E090930B
:1001300089008093880090938B0080938A0084E0EC
:1001400080936F0086BB81E090E008957894EADFA9
:10015000ECE7F0E0808180628083EAE7F0E0808174
:100160008C6A8083EBE7F0E080818560808308956E
:100170001F920F920FB60F9211240BB60F922F936E
:100180003F934F935F936F937F938F939F93AF931F
:10019000BF93EF93FF9380910E0290910F028436EC
:1001A000910511F4C3D205C0019690930F0280937C
:1001B0000E02FF91EF91BF91AF919F918F917F912F
:1001C0006F915F914F913F912F910F900BBE0F90C8
:1001D0000FBE0F901F9018951F920F920FB60F929F
:1001E00011240BB60F922F933F938F939F93EF930E
:1001F000FF9380917900282F30E0309315022093EF
:100200001402E0911202F0911302EE5DFD4F808323
:100210002091120230911302809106029091070200
:100220002817390779F4109213021092120281E014
:1002300090E0909311028093100280910A068093BF
:10024000220209C0809112029091130201969093AC
:10025000130280931202FF91EF919F918F913F9132
:100260002F910F900BBE0F900FBE0F901F901895FF
:100270000F931F93CF93DF939C01FB0190819535E2
:1002800009F0D8C081818A3A09F0D7C0EB01890111
:1002900094819130C1F487818111D2C08085811110
:1002A000D2C0F901908361E070E082E090E0A8D4D0
:1002B000F801928381832D81FC0120832E8121838B
:1002C00081E090E0D1C0923009F09BC0818581111E
:1002D000BDC082858111BDC0F901908361E070E0ED
:1002E00084E090E08DD4F801928381836D8170E089
:1002F000762F662766277F778E81680F711D6A309B
:1003000071056CF487EA91E6A0E0B0E08093080202
:1003100090930902A0930A02B0930B0235C0613199
:10032000F7E27F076CF08FE890E0A0E0B0E0809308
:10033000080290930902A0930A02B0930B0224C012
:10034000072E000C880B990B6CD39B01AC0160E06D
:1003500070E080E89FE3CFD220E034E244E75BE442
:10036000ECD320E030E040E852E460D220E030E01E
:1003700040E85CE3E2D327D360930802709309025C
:1003800080930A0290930B02E8E0F2E08081918171
:1003900090938B0080938A00808191819093890053
:1003A000809388008F8190E0982F882788279F77F7
:1003B0002885820F911D1092220210921302109232
:1003C0001202813127E292074CF080E197E290938C
:1003D00007028093060281E090E046C08A309105D2
:1003E0004CF48AE090E0909307028093060281E04B
:1003F00090E03AC0909307028093060281E090E07B
:1004000033C0933049F58581811129C086818111DE
:1004100029C0F901908310922202109213021092C7
:1004200012028FEF90E0909307028093060281E022
:1004300090E01AC08FEF9FEF17C08FEF9FEF14C0AF
:100440008FEF9FEF11C08FEF9FEF0EC08FEF9FEFE9
:100450000BC08FEF9FEF08C081E090E005C08FEFE9
:100460009FEF02C08FEF9FEFDF91CF911F910F9110
:100470000895CF93DF93EC0161E070E0888109D1AA
:100480008B8361E070E0898104D18B8361E070E04F
:100490008A81FFD08B8380E090E001C00196843197
:1004A0009105E4F361E070E080E0F3D08B838F3F4F
:1004B00019F08FEF9FEF02C081E090E0DF91CF91C4
:1004C0000895FF920F931F93CF93DF938C01809138
:1004D0000602909107020F2EF7E0FF2EF02DF80E86
:1004E000EC01279685E51FD18AEA1DD18D2F1BD1FE
:1004F0008F2D19D1D8018C9116D1C0E0D0E00AC05F
:10050000D8011196ED91FC911297EC0FFD1F80819F
:100510000AD121968091060290910702C817D90747
:1005200078F380E000D180E0FED081E090E0DF91C0
:10053000CF911F910F91FF900895CF93DF93CDB787
:10054000DEB727970FB6F894DEBF0FBECDBF81E0B0
:1005500089831C821D828FEF8E8380E07FD0C9D07B
:10056000F5DD80911C0290911D02892BE1F06091D4
:10057000F4097091F509CE0101967ADEBE016F5F34
:100580007F4FCE01049626D08981813021F4CE019F
:1005900004966FDF04C0823021F3833011F3109290
:1005A0001D0210921C028091100290911102892B61
:1005B000C1F2AE014F5F5F4F6AE076E082E048D063
:1005C000CE0101967EDF10920A061092110210925F
:1005D0001002C7CFCF93DF93FC01DB018C918130F8
:1005E00079F511960D90BC91A02D8C91811103C0CD
:1005F00011968C918183EB01A981BA818C91813014
:1006000021F411968C9180831BC0823049F484E0E0
:100610008083EB01A981BA8111968C91818310C0EE
:10062000833071F410821182109222021092130210
:10063000109212028FEF90E09093070280930602CF
:1006400091819095928381E090E0DF91CF91089520
:10065000FA0180838181928115C408957894811173
:100660000AC087E084B981E085B992ED9CBD8DBD5B
:1006700081E090E008958F3F49F488E084B981E0FB
:1006800085B980E48CBD81E090E0089580E090E041
:10069000089595B19E7F95B98EBD80911A02909173
:1006A0001B02892BD1F310921B0210921A026130A7
:1006B000710511F48EB50895672B29F085B181601D
:1006C00085B980E0089581E008951F920F920FB6DA
:1006D0000F9211248F939F9381E090E090931B02DF
:1006E00080931A029F918F910F900FBE0F901F90D1
:1006F000189561E070E084E690E082D29093F5096D
:100700008093F40978941092C50083E38093C40029
:10071000E1ECF0E0808188698083E2ECF0E08081A8
:100720008660808308958093C600089580911E029C
:1007300090911F02A0912002B09121020397A10580
:10074000B105E9F4E091F409F091F509808185356E
:10075000B1F481818A3A99F4828190E0982F8827B8
:100760002381820F911D092E000CAA0BBB0B8093D5
:10077000160290931702A0931802B0931902809169
:10078000160290911702A0911802B09119020197D8
:10079000A109B10940911E0250911F0260912002EF
:1007A0007091210284179507A607B707D9F48091A5
:1007B0001E0290911F02A0912002B0912102049785
:1007C000A105B10578F081E090E090931D0280933F
:1007D0001C0210921E0210921F0210922002109210
:1007E0002102089580911E0290911F02A091200283
:1007F000B09121020196A11DB11D80931E0290931C
:100800001F02A0932002B093210208951F920F921D
:100810000FB60F9211248F938091C60080930C0223
:100820008F910F900FBE0F901F9018955058BB27B7
:10083000AA270ED048C139D130F03ED120F031F492
:100840009F3F11F41EF42EC10EF4E095E7FB24C186
:10085000E92F4AD180F3BA17620773078407950717
:1008600018F071F49EF562C10EF4E0950B2EBA2FCC
:10087000A02D0B01B90190010C01CA01A0011124A6
:10088000FF27591B99F0593F50F4503E68F11A1652
:10089000F040A22F232F342F4427585FF3CF4695E3
:1008A00037952795A795F0405395C9F77EF41F1605
:1008B000BA0B620B730B840BBAF09150A1F0FF0FCF
:1008C000BB1F661F771F881FC2F70EC0BA0F621FBB
:1008D000731F841F48F4879577956795B795F795AB
:1008E0009E3F08F0B3CF9395880F08F09927EE0F3D
:1008F0009795879508950CD0E6C0DED040F0D5D00E
:1009000030F021F45F3F19F0C7C0511110C1CAC0C7
:10091000EBD098F39923C9F35523B1F3951B550BED
:10092000BB27AA2762177307840738F09F5F5F4FC2
:10093000220F331F441FAA1FA9F333D00E2E3AF003
:10094000E0E830D091505040E695001CCAF729D01D
:10095000FE2F27D0660F771F881FBB1F261737076C
:100960004807AB07B0E809F0BB0B802DBF01FF279C
:1009700093585F4F2AF09E3F510568F08DC0D7C055
:100980005F3FECF3983EDCF3869577956795B795D6
:10099000F7959F5FC9F7880F911D9695879597F9F1
:1009A0000895E1E0660F771F881FBB1F621773076A
:1009B0008407BA0720F0621B730B840BBA0BEE1F7F
:1009C00088F7E095089598D088F09F5790F0B92F58
:1009D0009927B751A0F0D1F0660F771F881F991F94
:1009E0001AF0BA95C9F712C0B13081F09FD0B1E0CA
:1009F00008959CC0672F782F8827B85F39F0B93FDA
:100A0000CCF3869577956795B395D9F73EF4909595
:100A10008095709561957F4F8F4F9F4F0895E89413
:100A200009C097FB3EF490958095709561957F4F36
:100A30008F4F9F4F9923A9F0F92F96E9BB279395E4
:100A4000F695879577956795B795F111F8CFFAF4F4
:100A5000BB0F11F460FF1BC06F5F7F4F8F4F9F4F25
:100A600016C0882311F096E911C0772321F09EE883
:100A7000872F762F05C0662371F096E8862F70E0E9
:100A800060E02AF09A95660F771F881FDAF7880FC3
:100A90009695879597F9089597F99F6780E870E094
:100AA00060E008959FEF80EC089500240A941616E4
:100AB000170618060906089500240A94121613064C
:100AC000140605060895092E0394000C11F48823DA
:100AD00052F0BB0F40F4BF2B11F460FF04C06F5FF6
:100AE0007F4F8F4F9F4F089557FD9058440F551FCC
:100AF00059F05F3F71F04795880F97FB991F61F0A0
:100B00009F3F79F087950895121613061406551F16
:100B1000F2CF4695F1DF08C0161617061806991F82
:100B2000F1CF86957105610508940895E894BB2777
:100B300066277727CB0197F908950BD0C4CFB5DF8F
:100B400028F0BADF18F0952309F0A6CFABCF112417
:100B5000EECFCADFA0F3959FD1F3950F50E0551F5C
:100B6000629FF001729FBB27F00DB11D639FAA2702
:100B7000F00DB11DAA1F649F6627B00DA11D661F51
:100B8000829F2227B00DA11D621F739FB00DA11D72
:100B9000621F839FA00D611D221F749F3327A00D2C
:100BA000611D231F849F600D211D822F762F6A2FC8
:100BB00011249F5750408AF0E1F088234AF0EE0F4D
:100BC000FF1FBB1F661F771F881F91505040A9F75A
:100BD0009E3F510570F060CFAACF5F3FECF3983E87
:100BE000DCF3869577956795B795F795E7959F5FC1
:100BF000C1F7FE2B880F911D9695879597F908955B
:100C00000F931F93CF93DF93869F8001879F100DD3
:100C1000969F100D1124C8010DD0EC01009721F012
:100C2000A80160E070E027D1CE01DF91CF911F9144
:100C30000F9108950F931F93CF93DF938230910507
:100C400010F482E090E0E091F809F091F90920E0D9
:100C500030E0A0E0B0E0309719F14081518102818D
:100C6000138148175907C8F08417950769F410973E
:100C700031F012960C93129713961C9327C0009391
:100C8000F8091093F90922C02115310519F042170E
:100C9000530718F49A01BD01EF01DF01F801DBCF22
:100CA00021153105F9F0281B390B2430310580F46A
:100CB0008A819B816115710521F0FB0193838283F9
:100CC00004C09093F9098093F809FE01329644C05C
:100CD000FE01E20FF31F8193919322503109398372
:100CE00028833AC02091F6093091F709232B41F46B
:100CF00020910202309103023093F7092093F60904
:100D000020910002309101022115310541F42DB7E7
:100D10003EB74091040250910502241B350BE0912F
:100D2000F609F091F709E217F307A0F42E1B3F0B29
:100D30002817390778F0AC014E5F5F4F241735074D
:100D400048F04E0F5F1F5093F7094093F6098193C7
:100D5000919302C0E0E0F0E0CF01DF91CF911F91CD
:100D60000F910895CF93DF93009709F481C0FC01A0
:100D7000329713821282A091F809B091F909109765
:100D800081F420813181820F931F2091F6093091E7
:100D9000F7092817390751F5F093F709E093F60999
:100DA00067C0ED0120E030E0CE17DF0740F44A8154
:100DB0005B819E0141155105F1F0EA01F5CFD38326
:100DC000C28340815181840F951FC817D90759F4F8
:100DD00088819981840F951F0296918380838A81EF
:100DE0009B81938382832115310529F4F093F909BE
:100DF000E093F8093DC0E901FB83EA8349915991E9
:100E0000C40FD51FEC17FD0761F480819181840F19
:100E1000951F0296E90199838883828193819B8340
:100E20008A83E0E0F0E012968D919C9113970097F1
:100E300019F0FD01DC01F7CF8D919C9111979D0177
:100E40002E5F3F4F820F931F2091F6093091F709D3
:100E50002817390769F4309729F41092F90910928C
:100E6000F80902C013821282B093F709A093F60921
:100E7000DF91CF910895DC0101C06D934150504046
:100E8000E0F70895FB01DC0101900D920020E1F7ED
:060E90000895F894FFCF65
:0E0E96000000FA0920000A000A0000002000F7
:00000001FF
