:1000000071C000008EC000008CC000008AC00000DB
:1000100088C0000086C0000084C0000082C00000CC
:1000200080C000007EC000007CC000007AC00000DC
:1000300078C0000076C0000074C0000072C00000EC
:1000400070C000006EC000006CC000006AC00000FC
:1000500068C0000087C0000064C0000062C00000EB
:10006000C8C100005DC200005CC000006DC200009D
:1000700058C0000081C0000054C0000052C0000001
:1000800050C000004EC000004CC000004AC000003C
:1000900048C0000046C0000044C0000042C000004C
:1000A00040C000003EC000003CC000003AC000005C
:1000B00038C0000036C0000034C0000032C000006C
:1000C00030C000002EC000002CC000002AC000007C
:1000D00028C0000026C0000024C0000022C000008C
:1000E00020C0000011241FBECFEFD1E2DEBFCDBF84
:1000F00000E00CBF12E0A0E0B2E0E2E4F8E000E0D3
:100100000BBF02C007900D92A633B107D9F722E0CA
:10011000A6E3B2E001C01D92A83AB207E1F700D110
:100120008EC36ECF82E084BD94E095BD9CE797BD01
:1001300098BD80936E0085BB81E090E00895F2DF6A
:1001400080E680937C008DEA80937A0083E0809340
:100150007B0008958091790090E09093370280931E
:10016000360208951F920F920FB60F9211240F902E
:100170000FBE0F901F9018951F920F920FB60F92FF
:1001800011240BB60F922F933F934F935F936F936E
:100190007F938F939F93AF93BF93EF93FF93DADF98
:1001A000FF91EF91BF91AF919F918F917F916F914F
:1001B0005F914F913F912F910F900BBE0F900FBE0B
:1001C0000F901F9018950F931F93CF938C01DC0114
:1001D0001496CC91C13079F461E070E082E090E057
:1001E000C7D1782F292FF8013581DC013C93368166
:1001F00011963C931AC0C230C1F461E070E084E013
:1002000090E0B6D1FC01782F2F2FD80115968C9154
:100210001597808316968C911697818317968C91EB
:100220001797828318968C9183836C2F822FCF919E
:100230001F910F9108950F931F93CF93DF938C011C
:10024000C0E0D0E030C061E070E0F801EC0FFD1FCD
:100250008081B4D0833041F461E070E089E092E0C5
:10026000F0D08FEF9FEF57C0823041F461E070E033
:1002700082E192E0E6D08FEF9FEF4DC0813041F4F4
:1002800061E070E08BE192E0DCD08FEF9FEF43C044
:10029000882341F061E070E084E292E0D2D08FEFF9
:1002A0009FEF39C02196C330D1056CF280E090E019
:1002B00001C00196883C9105E4F361E070E080E0C4
:1002C0007DD0833041F461E070E089E092E0B9D004
:1002D0008FEF9FEF20C0823041F461E070E082E157
:1002E00092E0AFD08FEF9FEF16C0813091F0811177
:1002F00008C061E070E08DE292E0A3D08FEF9FEF45
:100300000AC061E070E084E292E09BD08FEF9FEF43
:1003100002C081E090E0DF91CF911F910F9108958D
:1003200080E031D070D00BDF61E070E083E090E0DE
:100330001FD1EC0180913C0290913D02892B29F064
:10034000A0D010923D0210923C0280913A0290910E
:100350003B02892B39F080E492E035DF10923B02BA
:1003600010923A02AE016FE382E006D0CE0163DF65
:100370008091360259D0DECFFA01962F9095808376
:10038000618392830895789481110AC087E084B9CB
:1003900015B882E58CBD81E08DBD81E090E00895C7
:1003A0008F3F49F488E084B981E085B980E48CBD51
:1003B00081E090E0089580E090E0089594B1977016
:1003C000973099F495B19E7F95B98EBD0DB407FE17
:1003D000FDCF85B1816085B96130710511F48EB5AD
:1003E0000895672B21F481E0089580E0089580E06E
:1003F00008951F920F920FB60F9211240F900FBE07
:100400000F901F90189578941092C50083E3809305
:10041000C400E1ECF0E08081886D8083E2ECF0E0E4
:1004200080818660808308952091070230910802C0
:10043000232BD1F310920802109207028093C6007A
:100440000895EF92FF920F931F93CF93DF938C0148
:100450007B01C0E0D0E002C0E7DF2196F801EC0F9D
:10046000FD1F80818111F8CFEF2821F08DE0DCDFC6
:100470008AE0DADFDF91CF911F910F91FF90EF902B
:100480000895CF93DF931F921F92CDB7DEB780916F
:10049000C60080930602E0913E02F0913F02E05CCC
:1004A000FD4F808380913E0290913F020397A9F413
:1004B00080914002853589F4809141028A3A69F43D
:1004C000E0E4F2E08281898383818A83CE01019610
:1004D0008AD1909339028093380220913E02309164
:1004E0003F0280913802909139022817390741F470
:1004F000892B31F081E090E090933B0280933A02A7
:1005000080913E0290913F02019690933F0280932A
:100510003E0281E090E00F900F90DF91CF9108951F
:100520001F920F920FB60F9211248F939F9381E029
:1005300090E090933D0280933C029F918F910F90A9
:100540000FBE0F901F9018951F920F920FB60F922B
:1005500011248F939F9381E090E090930802809301
:1005600007029F918F910F900FBE0F901F901895CB
:100570000F931F93CF93DF93869F8001879F100D6A
:10058000969F100D1124C8010DD0EC01009721F0A9
:10059000A80160E070E044D1CE01DF91CF911F91BE
:1005A0000F9108950F931F93CF93DF93823091059E
:1005B00010F482E090E0E091A602F091A70220E022
:1005C00030E0A0E0B0E0309719F140815181028124
:1005D000138148175907C8F08417950769F41097D5
:1005E00031F012960C93129713961C9327C0009328
:1005F000A6021093A70222C02115310519F0421757
:10060000530718F49A01BD01EF01DF01F801DBCFB8
:1006100021153105F9F0281B390B2430310580F400
:100620008A819B816115710521F0FB01938382838F
:1006300004C09093A7028093A602FE01329644C0A4
:10064000FE01E20FF31F8193919322503109398308
:1006500028833AC02091A4023091A502232B41F4B3
:1006600020910202309103023093A5022093A4024C
:1006700020910002309101022115310541F42DB77E
:100680003EB74091040250910502241B350BE091C6
:10069000A402F091A502E217F307A0F42E1B3F0B72
:1006A0002817390778F0AC014E5F5F4F24173507E4
:1006B00048F04E0F5F1F5093A5024093A402819310
:1006C000919302C0E0E0F0E0CF01DF91CF911F9164
:1006D0000F910895CF93DF93009709F481C0FC0137
:1006E000329713821282A091A602B091A7021097AE
:1006F00081F420813181820F931F2091A4023091D7
:10070000A5022817390751F5F093A502E093A4023A
:1007100067C0ED0120E030E0CE17DF0740F44A81EA
:100720005B819E0141155105F1F0EA01F5CFD383BC
:10073000C28340815181840F951FC817D90759F48E
:1007400088819981840F951F0296918380838A8185
:100750009B81938382832115310529F4F093A702AD
:10076000E093A6023DC0E901FB83EA8349915991D8
:10077000C40FD51FEC17FD0761F480819181840FB0
:10078000951F0296E90199838883828193819B83D7
:100790008A83E0E0F0E012968D919C911397009788
:1007A00019F0FD01DC01F7CF8D919C9111979D010E
:1007B0002E5F3F4F820F931F2091A4023091A5021C
:1007C0002817390769F4309729F41092A70210927C
:1007D000A60202C013821282B093A502A093A402C3
:1007E000DF91CF910895FC0188279927E894219102
:1007F0002032E9F3293010F02E30C8F32B3239F0D3
:100800002D3231F4689403C012D0820F911D2191D2
:1008100020532A30C8F31EF4909581959F4F089578
:10082000DC0101C06D9341505040E0F708957AE03B
:10083000979F902D879F802D910D11240895F894F6
:02084000FFCFE8
:100842000000A80220002001004552523A20313017
:1008520031004552523A20313032004552523A204C
:10086200313033004552523A203130340045525231
:060872003A203130350090
:00000001FF
