S01C00004469676974616C54656B6E696B50726F6A656B742E7372656305
S113000071C000008EC000008CC000008AC00000D7
S113001088C0000086C0000084C0000082C00000C8
S113002080C000007EC000007CC000007AC00000D8
S113003078C0000076C0000074C0000072C00000E8
S113004070C000006EC0000093C000006AC00000D1
S113005068C0000066C0000064C0000062C0000008
S113006089C10000B8C100005CC000005AC0000093
S113007058C0000091C0000054C0000052C00000ED
S113008050C000004EC000004CC000004AC0000038
S113009048C0000046C0000044C0000042C0000048
S11300A040C000003EC000003CC000003AC0000058
S11300B038C0000036C0000034C0000032C0000068
S11300C030C000002EC000002CC000002AC0000078
S11300D028C0000026C0000024C0000022C0000088
S11300E020C0000011241FBECFEFD1E2DEBFCDBF80
S11300F000E00CBF12E0A0E0B2E0ECE8F6E000E0C3
S11301000BBF02C007900D92AA30B107D9F729E0BE
S1130110AAE0B2E001C01D92AC3EB207E1F7C4D040
S1130120B3C26ECF8BE08093810088E190E090931E
S113013089008093880090938B0080938A0084E0E8
S113014080936F0086BB81E090E008957894EADFA5
S1130150ECE7F0E0808180628083EAE7F0E0808170
S11301608C6A8083EBE7F0E080818560808308956A
S11301701F920F920FB60F9211248F939F9381E0D9
S113018090E090931302809312029F918F910F90AD
S11301900FBE0F901F9018951F920F920FB60F92DB
S11301A011240BB60F922F933F938F939F93EF934A
S11301B0FF9380917900282F30E030930F02209331
S11301C00E02E0910C02F0910D02EC5EFD4F808373
S11301D020910C0230910D02809106029091070249
S11301E02817390779F410920D0210920C0281E05D
S11301F090E090930B0280930A028091FC05809317
S1130200140209C080910C0290910D020196909302
S11302100D0280930C02FF91EF919F918F913F917A
S11302202F910F900BBE0F900FBE0F901F9018953B
S1130230FF920F931F93CF93DF938C01809106025B
S1130240909107020F2EF7E0FF2EF02DF80EEC012F
S1130250279685E5BDD08AEABBD08D2FB9D08F2DE6
S1130260B7D0D8018C91B4D0C0E0D0E00AC0D80196
S11302701196ED91FC911297EC0FFD1F8081A8D08F
S113028021968091060290910702C817D90778F346
S113029080E09ED080E09CD081E090E0DF91CF911F
S11302A01F910F91FF900895CF93DF9300D0CDB7A6
S11302B0DEB711E0198380E042D070D047DFE091CF
S11302C0E609F091E70985E58083E091E609F0917C
S11302D0E7098AEA8183E091E609F091E70912824D
S11302E089E08383148315828FE3868317821086C3
S11302F08091120290911302892B29F01EBC109256
S113030013021092120280910A0290910B02892B1F
S113031079F3AE014F5F5F4F6CEF75E089810AD0CE
S1130320CE01019685DF1092FC0510920B0210920B
S11303300A02DECFFA01818192819FC108957894E7
S113034081110AC087E084B981E085B992ED9CBD32
S11303508DBD81E090E008958F3F49F488E084B931
S113036081E085B980E48CBD81E090E0089580E06F
S113037090E008951F920F920FB60F9211248F935D
S11303809F9381E090E090931102809310029F91DB
S11303908F910F900FBE0F901F90189561E070E041
S11303A084E690E028D09093E7098093E609789456
S11303B01092C50083E38093C400E1ECF0E08081F7
S11303C088698083E2ECF0E0808186608083089510
S11303D08093C60008951F920F920FB60F921124B6
S11303E08F938091C600809308028F910F900FBE67
S11303F00F901F9018950F931F93CF93DF93869FB1
S11304008001879F100D969F100D1124C8010DD0F7
S1130410EC01009721F0A80160E070E027D1CE0143
S1130420DF91CF911F910F9108950F931F93CF9355
S1130430DF938230910510F482E090E0E091EA09C4
S1130440F091EB0920E030E0A0E0B0E0309719F142
S1130450408151810281138148175907C8F08417DC
S1130460950769F4109731F012960C93129713962E
S11304701C9327C00093EA091093EB0922C02115AD
S1130480310519F04217530718F49A01BD01EF0121
S1130490DF01F801DBCF21153105F9F0281B390BF9
S11304A02430310580F48A819B816115710521F026
S11304B0FB019383828304C09093EB098093EA0940
S11304C0FE01329644C0FE01E20FF31F8193919323
S11304D022503109398328833AC02091E8093091A8
S11304E0E909232B41F42091020230910302309355
S11304F0E9092093E80920910002309101022115B5
S1130500310541F42DB73EB74091040250910502E4
S1130510241B350BE091E809F091E909E217F30790
S1130520A0F42E1B3F0B2817390778F0AC014E5F5F
S11305305F4F2417350748F04E0F5F1F5093E909AA
S11305404093E8098193919302C0E0E0F0E0CF0189
S1130550DF91CF911F910F910895CF93DF9300976F
S113056009F481C0FC01329713821282A091EA0936
S1130570B091EB09109781F420813181820F931F90
S11305802091E8093091E9092817390751F5F093CA
S1130590E909E093E80967C0ED0120E030E0CE17F7
S11305A0DF0740F44A815B819E0141155105F1F05A
S11305B0EA01F5CFD383C28340815181840F951F13
S11305C0C817D90759F488819981840F951F029619
S11305D0918380838A819B81938382832115310552
S11305E029F4F093EB09E093EA093DC0E901FB83A8
S11305F0EA8349915991C40FD51FEC17FD0761F4A3
S113060080819181840F951F0296E90199838883E3
S1130610828193819B838A83E0E0F0E012968D913E
S11306209C911397009719F0FD01DC01F7CF8D9190
S11306309C9111979D012E5F3F4F820F931F209134
S1130640E8093091E9092817390769F4309729F442
S11306501092EB091092EA0902C013821282B0933D
S1130660E909A093E809DF91CF910895DC0101C065
S11306706D9341505040E0F70895FB01DC01019077
S10F06800D920020E1F70895F894FFCFDC
S10D068C0000EC0920000A00200021
S9030000FC
