S01C00004469676974616C54656B6E696B50726F6A656B742E7372656305
S113000071C000008EC000008CC000008AC00000D7
S113001088C0000086C0000084C0000082C00000C8
S113002080C000007EC000007CC000007AC00000D8
S113003078C0000076C0000074C0000072C00000E8
S113004070C000006EC000009BC000006AC00000C9
S113005068C0000066C0000064C0000062C0000008
S1130060C8C1000045C200005CC0000055C20000C9
S113007058C0000099C0000054C0000052C00000E5
S113008050C000004EC000004CC000004AC0000038
S113009048C0000046C0000044C0000042C0000048
S11300A040C000003EC000003CC000003AC0000058
S11300B038C0000036C0000034C0000032C0000068
S11300C030C000002EC000002CC000002AC0000078
S11300D028C0000026C0000024C0000022C0000088
S11300E020C0000011241FBECFEFD1E2DEBFCDBF80
S11300F000E00CBF12E0A0E0B2E0E0E2F8E000E0D3
S11301000BBF02C007900D92AC30B107D9F729E0BC
S1130110ACE0B2E001C01D92A63FB207E1F7E7D020
S11301207DC36ECF8BE0809381008FE890E0909345
S113013089008093880090938B0080938A0084E0E8
S113014080936F0086BB81E090E00895789480915D
S11301500602909107029093ED098093EC09E2DF87
S1130160ECE7F0E0808180628083EAE7F0E0808160
S11301708C6A8083EBE7F0E080818560808308955A
S11301801F920F920FB60F9211248F939F9381E0C9
S113019090E090931702809316029F918F910F9095
S11301A00FBE0F901F9018951F920F920FB60F92CB
S11301B011240BB60F922F933F938F939F93EF933A
S11301C0FF9380917900282F30E03093110220931F
S11301D01002E0910E02F0910F02E45EFD4F808365
S11301E080910E0290910F020A97B9F410920F02B7
S11301F010920E0281E090E090930D0280930C0225
S11302008091040680931C0280910602909107025B
S11302109093ED098093EC0909C080910E029091AE
S11302200F02019690930F0280930E02FF91EF91BB
S11302309F918F913F912F910F900BBE0F900FBE06
S11302400F901F901895FF920F931F93CF93DF93F6
S11302508C018091EC099091ED090F2EF7E0FF2EAF
S1130260F02DF80EEC01279660E070E085E5A5D04E
S113027060E070E08AEAA1D060E070E08D2F9DD04C
S113028060E070E08F2D99D060E070E0D8011196A5
S11302908C9193D0C0E0D0E00CC0D8011296ED91BF
S11302A0FC911397EC0FFD1F60E070E0808185D016
S11302B021968091060290910702C817D90768F326
S11302C060E070E080E079D060E070E080E075D0BC
S11302D080E090E001C00196883C9105E4F381E060
S11302E090E0DF91CF911F910F91FF900895CF93EC
S11302F0DF9300D01F92CDB7DEB780E043D08DD01E
S113030025DF8981837F8860898361E070E084E6EA
S113031090E016D1FC0185E580838AEA818312820C
S113032089E0838382E084838FEF858386831782C9
S113033081E08087118612868091180290911902BB
S1130340892B29F084D010921902109218028091FE
S11303500C0290910D02892B79F3AE014F5F5F4F30
S113036064E076E082E008D0CE0101966CDF109262
S11303700D0210920C02E0CFFA01818382819381F5
S11303803EC20895789481110AC087E084B981E05F
S113039085B992ED9CBD8DBD81E090E008958F3FBD
S11303A049F488E084B981E085B980E48CBD81E0BA
S11303B090E0089580E090E0089595B19E7F95B90E
S11303C08EBD8091140290911502892BD1F3109265
S11303D01502109214026130710511F48EB508955E
S11303E0672B29F085B1816085B980E0089581E0AB
S11303F008951F920F920FB60F9211248F939F931B
S113040081E090E090931502809314029F918F9164
S11304100F900FBE0F901F90189561E070E084E676
S113042090E08ED09093F1098093F0097894109223
S1130430C50083E38093C400E1ECF0E08081886927
S11304408083E2ECF0E080818660808308952091CF
S1130450C6002093080280911A0290911B02E09139
S1130460F009F091F109E80FF91F208380911A0235
S113047090911B020397C1F4E091F009F091F10906
S11304808081853589F481818A3A71F4AEEEB9E0D0
S113049082818C93838111968C931197CD018BD19A
S11304A0909313028093120220911A0230911B023E
S11304B080911202909113022817390769F4892B4D
S11304C059F081E090E09093170280931602109205
S11304D01B0210921A0209C080911A0290911B0209
S11304E0019690931B0280931A0281E090E0089594
S11304F01F920F920FB60F9211248F939F9381E056
S113050090E090931902809318029F918F910F901D
S11305100FBE0F901F9018951F920F920FB60F9257
S113052011248F939F9381E090E090930A0280932B
S113053009029F918F910F900FBE0F901F901895F5
S11305400F931F93CF93DF93869F8001879F100D96
S1130550969F100D1124C8010DD0EC01009721F0D5
S1130560A80160E070E044D1CE01DF91CF911F91EA
S11305700F9108950F931F93CF93DF9382309105CA
S113058010F482E090E0E091F409F091F50920E0A4
S113059030E0A0E0B0E0309719F140815181028150
S11305A0138148175907C8F08417950769F4109701
S11305B031F012960C93129713961C9327C0009354
S11305C0F4091093F50922C02115310519F04217D9
S11305D0530718F49A01BD01EF01DF01F801DBCFE5
S11305E021153105F9F0281B390B2430310580F42D
S11305F08A819B816115710521F0FB0193838283BC
S113060004C09093F5098093F409FE01329644C026
S1130610FE01E20FF31F8193919322503109398334
S113062028833AC02091F2093091F309232B41F435
S113063020910202309103023093F3092093F209CE
S113064020910002309101022115310541F42DB7AA
S11306503EB74091040250910502241B350BE091F2
S1130660F209F091F309E217F307A0F42E1B3F0BF4
S11306702817390778F0AC014E5F5F4F2417350710
S113068048F04E0F5F1F5093F3094093F209819392
S1130690919302C0E0E0F0E0CF01DF91CF911F9190
S11306A00F910895CF93DF93009709F481C0FC0163
S11306B0329713821282A091F409B091F509109730
S11306C081F420813181820F931F2091F2093091AE
S11306D0F3092817390751F5F093F309E093F20968
S11306E067C0ED0120E030E0CE17DF0740F44A8117
S11306F05B819E0141155105F1F0EA01F5CFD383E9
S1130700C28340815181840F951FC817D90759F4BA
S113071088819981840F951F0296918380838A81B1
S11307209B81938382832115310529F4F093F50984
S1130730E093F4093DC0E901FB83EA8349915991AF
S1130740C40FD51FEC17FD0761F480819181840FDC
S1130750951F0296E90199838883828193819B8303
S11307608A83E0E0F0E012968D919C9113970097B4
S113077019F0FD01DC01F7CF8D919C9111979D013A
S11307802E5F3F4F820F931F2091F2093091F3099E
S11307902817390769F4309729F41092F509109253
S11307A0F40902C013821282B093F309A093F209F0
S11307B0DF91CF910895FC0188279927E89421912E
S11307C02032E9F3293010F02E30C8F32B3239F0FF
S11307D02D3231F4689403C019D0820F911D2191F8
S11307E020532A30C8F31EF4909581959F4F0895A5
S11307F0DC0101C06D9341505040E0F70895FB01C6
S1130800DC0101900D920020E1F708957AE0979FB2
S1130810902D879F802D910D11240895F894FFCF7A
S10F08200000F60920000A00200100007E
S9030000FC
