:1000000071C000008EC000008CC000008AC00000DB
:1000100088C0000086C0000084C0000082C00000CC
:1000200080C000007EC000007CC000007AC00000DC
:1000300078C0000076C0000074C0000072C00000EC
:1000400070C000006EC000006CC000006AC00000FC
:1000500068C000007EC0000064C0000062C00000F4
:10006000FAC1000084C200005CC0000094C200001D
:1000700058C0000078C0000054C0000052C000000A
:1000800050C000004EC000004CC000004AC000003C
:1000900048C0000046C0000044C0000042C000004C
:1000A00040C000003EC000003CC000003AC000005C
:1000B00038C0000036C0000034C0000032C000006C
:1000C00030C000002EC000002CC000002AC000007C
:1000D00028C0000026C0000024C0000022C000008C
:1000E00020C0000011241FBECFEFD1E2DEBFCDBF84
:1000F00000E00CBF12E0A0E0B2E0E0E9F8E000E0D0
:100100000BBF02C007900D92AA30B107D9F722E0C9
:10011000AAE0B2E001C01D92AC31B207E1F7D9D03C
:10012000B5C36ECF82E084BD85BD97EC97BD98BD09
:1001300080936E0085BB81E090E00895F3DF80E658
:1001400080937C008DEA80937A0083E080937B002B
:1001500008951F920F920FB60F9211240F900FBEA9
:100160000F901F9018951F920F920FB60F921124A7
:100170000F900FBE0F901F901895DF92EF92FF9295
:100180000F931F93CF93DF93EC01FB019081953583
:1001900009F05FC091819A3A09F05EC08B0161E07D
:1001A00070E082E090E00BD27C01F8018481813024
:1001B000C9F49781911153C09085911153C08983DF
:1001C00061E070E082E090E0FAD19B838A83F801DD
:1001D0002581FC012083F8012681FC01218381E037
:1001E00090E04BC0823009F040C0F8019185911138
:1001F0003FC0928591113FC0898361E070E084E047
:1002000090E0DDD19B838A83F8018581F7018083AB
:10021000F8018681F7018183C7010CD3837098812F
:100220009C7FD92ED82AD882F8018781F701808354
:10023000F8018085F7018183C701FCD28370880FA4
:10024000880F9D2D937FD92ED82AD88281E090E007
:1002500014C08FEF9FEF11C08FEF9FEF0EC08FEF95
:100260009FEF0BC08FEF9FEF08C081E090E005C0CB
:100270008FEF9FEF02C08FEF9FEFDF91CF911F9124
:100280000F91FF90EF90DF900895CF93DF93EC01F3
:1002900061E070E08881C3D08B8361E070E0898188
:1002A000BED08B8361E070E08A81B9D08B8380E01F
:1002B00090E001C0019684319105E4F361E070E0C3
:1002C00080E0ADD08B83F5D080E090E0DF91CF91DE
:1002D0000895CF93DF93CDB7DEB728970FB6F89484
:1002E000DEBF0FBECDBF82E08D838E831F8280E094
:1002F0007BD0C5D023DF8981837F8860898361E0DB
:1003000070E084E690E05BD1FC0185E580838AEAB9
:100310008183128289E0838381E0848315828FE365
:100320008683178210868091100290911102892B8A
:1003300029F0CCD0109211021092100280910E027E
:1003400090910F02892B79F3609116027091170238
:10035000CE01019612DF009116021091170261E0A2
:1003600070E084E690E02BD1909317028093160200
:10037000C801D7D1BE016F5F7F4FCE01059608D06F
:10038000CE01059682DF10920F0210920E02CBCFA3
:10039000CF93DF93FC01DB0111968C911197813093
:1003A000D9F412960D90BC91A02D8C91811104C0AE
:1003B00011968C91818310C0813021F411968C911B
:1003C00080830AC0823041F484E08083EB01AA81FB
:1003D000BB8111968C91818391819095928381E06C
:1003E00090E0DF91CF910895789481110AC087E061
:1003F00084B981E085B992ED9CBD8DBD81E090E02E
:1004000008958F3F49F488E084B981E085B980E49C
:100410008CBD81E090E0089580E090E0089595B172
:100420009E7F95B98EBD80910C0290910D02892B13
:10043000D1F310920D0210920C026130710511F48B
:100440008EB50895672B29F085B1816085B980E06C
:10045000089581E008951F920F920FB60F92112414
:100460008F939F9381E090E090930D0280930C0214
:100470009F918F910F900FBE0F901F90189561E084
:1004800070E084E690E09BD0909317028093160270
:1004900078941092C50083E38093C400E1ECF0E00F
:1004A0008081886D8083E2ECF0E0808186608083CB
:1004B00008952091070230910802232BD1F3109266
:1004C0000802109207028093C60008952091C6008A
:1004D000209306028091120290911302E09116027D
:1004E000F0911702E80FF91F20838091120290917A
:1004F00013020397C1F4E0911602F0911702808174
:10050000853589F481818A3A71F4A4E1B2E082816F
:100510008C93838111968C931197CD018BD19093FD
:100520000B0280930A0220911202309113028091F3
:100530000A0290910B022817390769F4892B59F0A8
:1005400081E090E090930F0280930E0210921302CC
:100550001092120209C0809112029091130201962A
:10056000909313028093120281E090E008951F920D
:100570000F920FB60F9211248F939F9381E090E01A
:1005800090931102809310029F918F910F900FBE54
:100590000F901F9018951F920F920FB60F92112473
:1005A0008F939F9381E090E09093080280930702DD
:1005B0009F918F910F900FBE0F901F9018950F93E2
:1005C0001F93CF93DF93869F8001879F100D969F87
:1005D000100D1124C8010DD0EC01009721F0A801E5
:1005E00060E070E044D1CE01DF91CF911F910F9177
:1005F00008950F931F93CF93DF938230910510F4EA
:1006000082E090E0E0911A02F0911B0220E030E0DD
:10061000A0E0B0E0309719F140815181028113814F
:1006200048175907C8F08417950769F4109731F0F7
:1006300012960C93129713961C9327C000931A02DC
:1006400010931B0222C02115310519F042175307E0
:1006500018F49A01BD01EF01DF01F801DBCF21158C
:100660003105F9F0281B390B2430310580F48A81DB
:100670009B816115710521F0FB019383828304C086
:1006800090931B0280931A02FE01329644C0FE0131
:10069000E20FF31F8193919322503109398328830C
:1006A0003AC02091180230911902232B41F4209175
:1006B0000202309103023093190220931802209114
:1006C0000002309101022115310541F42DB73EB7EA
:1006D0004091040250910502241B350BE091180251
:1006E000F0911902E217F307A0F42E1B3F0B281715
:1006F000390778F0AC014E5F5F4F2417350748F09B
:100700004E0F5F1F509319024093180281939193EB
:1007100002C0E0E0F0E0CF01DF91CF911F910F9197
:100720000895CF93DF93009709F481C0FC013297BD
:1007300013821282A0911A02B0911B02109781F4C9
:1007400020813181820F931F20911802309119026C
:100750002817390751F5F0931902E093180267C082
:10076000ED0120E030E0CE17DF0740F44A815B81E5
:100770009E0141155105F1F0EA01F5CFD383C28303
:1007800040815181840F951FC817D90759F488817A
:100790009981840F951F0296918380838A819B8122
:1007A000938382832115310529F4F0931B02E09392
:1007B0001A023DC0E901FB83EA8349915991C40FB4
:1007C000D51FEC17FD0761F480819181840F951F7F
:1007D0000296E90199838883828193819B838A832E
:1007E000E0E0F0E012968D919C911397009719F03C
:1007F000FD01DC01F7CF8D919C9111979D012E5F3A
:100800003F4F820F931F2091180230911902281731
:10081000390769F4309729F410921B0210921A02DA
:1008200002C013821282B0931902A0931802DF91C2
:10083000CF910895FC0188279927E89421912032CF
:10084000E9F3293010F02E30C8F32B3239F02D3275
:1008500031F4689403C012D0820F911D219120536E
:100860002A30C8F31EF4909581959F4F0895DC01BE
:1008700001C06D9341505040E0F708957AE0979F92
:10088000902D879F802D910D11240895F894FFCF0E
:0A08900000001C02200020010000FF
:00000001FF
