:1000000071C000008EC000008CC000008AC00000DB
:1000100088C0000086C0000084C0000082C00000CC
:1000200080C000007EC000007CC000007AC00000DC
:1000300078C0000076C0000074C0000072C00000EC
:1000400070C000006EC000006CC000006AC00000FC
:1000500068C000007EC0000064C0000062C00000F4
:100060009BC100001AC200005CC000002AC2000050
:1000700058C0000078C0000054C0000052C000000A
:1000800050C000004EC000004CC000004AC000003C
:1000900048C0000046C0000044C0000042C000004C
:1000A00040C000003EC000003CC000003AC000005C
:1000B00038C0000036C0000034C0000032C000006C
:1000C00030C000002EC000002CC000002AC000007C
:1000D00028C0000026C0000024C0000022C000008C
:1000E00020C0000011241FBECFEFD1E2DEBFCDBF84
:1000F00000E00CBF12E0A0E0B2E0EAECF7E000E0C4
:100100000BBF02C007900D92AC30B107D9F722E0C7
:10011000ACE0B2E001C01D92AC31B207E1F7B9D05A
:1001200052C36ECF82E084BD85BD97EC97BD98BD6C
:1001300080936E0085BB81E090E00895F3DF80E658
:1001400080937C008DEA80937A0083E080937B002B
:1001500008951F920F920FB60F9211240F900FBEA9
:100160000F901F9018951F920F920FB60F921124A7
:100170000F900FBE0F901F9018950F931F93CF9362
:100180008C01DC011496CC91C13079F461E070E00F
:1001900082E090E0AAD1382F292FF8014581DC01B7
:1001A0004C93468111964C931AC0C230C1F461E061
:1001B00070E084E090E099D1FC01382F2F2FD80116
:1001C00015968C911597808316968C91169781833E
:1001D00017968C911797828318968C91838360E091
:1001E0007C2F832F922FCF911F910F910895FF9213
:1001F0000F931F93CF93DF938C01DC01CC91C370DD
:100200000F2EF7E0FF2EF02DFC0ED0E0279660E0D9
:1002100070E085E5A5D060E070E08AEAA1D060E0FA
:1002200070E08D2F9DD060E070E08F2D99D060E060
:1002300070E0F801818194D0C0E0D0E00CC0D8011A
:100240001296ED91FC911397EC0FFD1F60E070E0AA
:10025000808186D02196F8018081837090E0C81754
:10026000D9076CF360E070E080E07AD060E070E085
:1002700080E076D080E090E001C00196883C910556
:10028000E4F381E090E0DF91CF911F910F91FF9017
:100290000895CF93DF9300D01F92CDB7DEB780E0F3
:1002A00044D08ED04BDF89818C7F8260898380919E
:1002B000120290911302892B29F09CD01092130204
:1002C000109212028091100290911102892BE1F09C
:1002D000809116029091170250DF69837A838B8395
:1002E0009C83009116021091170261E070E084E691
:1002F00090E0FBD09093170280931602C801A7D11B
:100300001092110210921002AE014F5F5F4F69E030
:1003100072E082E004D0CE01019669DFC8CFFA0115
:1003200081838281938140C20895789481110AC0AB
:1003300087E084B981E085B992ED9CBD8DBD81E0F7
:1003400090E008958F3F49F488E084B981E085B951
:1003500080E48CBD81E090E0089580E090E0089515
:1003600095B19E7F95B98EBD80910E0290910F023E
:10037000892BD1F310920F0210920E026130710599
:1003800011F48EB50895672B29F085B1816085B988
:1003900080E0089581E008951F920F920FB60F92AA
:1003A00011248F939F9381E090E090930F028093AC
:1003B0000E029F918F910F900FBE0F901F90189576
:1003C00061E070E084E690E090D090931702809313
:1003D000160278941092C50083E38093C400E1EC88
:1003E000F0E08081886D8083E2ECF0E080818660BF
:1003F00080830895CF93DF931F921F92CDB7DEB70E
:100400002091C6002093060280911402909115025B
:10041000E0911602F0911702E80FF91F20838091F6
:100420001402909115020397A9F4E0911602F0913D
:1004300017028081853571F481818A3A59F482816D
:10044000898383818A83CE0101968AD190930D029C
:1004500080930C02209114023091150280910C02BD
:1004600090910D022817390741F4892B31F081E072
:1004700090E0909311028093100280911402909169
:1004800015020196909315028093140281E090E08A
:100490000F900F90DF91CF9108951F920F920FB69A
:1004A0000F9211248F939F9381E090E09093130219
:1004B000809312029F918F910F900FBE0F901F900B
:1004C00018951F920F920FB60F9211248F939F933E
:1004D00081E090E090930802809307029F918F91B2
:1004E0000F900FBE0F901F9018950F931F93CF93EF
:1004F000DF93869F8001879F100D969F100D11241A
:10050000C8010DD0EC01009721F0A80160E070E077
:1005100044D1CE01DF91CF911F910F9108950F9398
:100520001F93CF93DF938230910510F482E090E027
:10053000E0911A02F0911B0220E030E0A0E0B0E070
:10054000309719F140815181028113814817590771
:10055000C8F08417950769F4109731F012960C9340
:10056000129713961C9327C000931A0210931B0234
:1005700022C02115310519F04217530718F49A01CA
:10058000BD01EF01DF01F801DBCF21153105F9F0E5
:10059000281B390B2430310580F48A819B81611539
:1005A000710521F0FB019383828304C090931B02A9
:1005B00080931A02FE01329644C0FE01E20FF31F3F
:1005C0008193919322503109398328833AC0209135
:1005D000180230911902232B41F42091020230912C
:1005E00003023093190220931802209100023091E7
:1005F00001022115310541F42DB73EB740910402A7
:1006000050910502241B350BE0911802F09119025C
:10061000E217F307A0F42E1B3F0B2817390778F0D9
:10062000AC014E5F5F4F2417350748F04E0F5F1F38
:1006300050931902409318028193919302C0E0E015
:10064000F0E0CF01DF91CF911F910F910895CF93EB
:10065000DF93009709F481C0FC0132971382128264
:10066000A0911A02B0911B02109781F42081318170
:10067000820F931F20911802309119022817390711
:1006800051F5F0931902E093180267C0ED0120E0E4
:1006900030E0CE17DF0740F44A815B819E014115AF
:1006A0005105F1F0EA01F5CFD383C2834081518136
:1006B000840F951FC817D90759F488819981840F31
:1006C000951F0296918380838A819B819383828385
:1006D0002115310529F4F0931B02E0931A023DC065
:1006E000E901FB83EA8349915991C40FD51FEC17A7
:1006F000FD0761F480819181840F951F0296E901C5
:1007000099838883828193819B838A83E0E0F0E0F0
:1007100012968D919C911397009719F0FD01DC01C1
:10072000F7CF8D919C9111979D012E5F3F4F820FC6
:10073000931F20911802309119022817390769F484
:10074000309729F410921B0210921A0202C01382F1
:100750001282B0931902A0931802DF91CF910895ED
:10076000FC0188279927E89421912032E9F3293068
:1007700010F02E30C8F32B3239F02D3231F468945A
:1007800003C019D0820F911D219120532A30C8F344
:100790001EF4909581959F4F0895DC0101C06D93E3
:1007A00041505040E0F70895FB01DC0101900D92AB
:1007B0000020E1F708957AE0979F902D879F802D84
:0A07C000910D11240895F894FFCF65
:0C07CA0000001C0220002001005353001E
:00000001FF
