:1000000071C000008EC000008CC000008AC00000DB
:1000100088C0000086C0000084C0000082C00000CC
:1000200080C000007EC000007CC000007AC00000DC
:1000300078C0000076C0000074C0000072C00000EC
:1000400070C000006EC000006CC000006AC00000FC
:1000500068C000007EC0000064C0000062C00000F4
:1000600064C10000E3C100005CC00000F3C10000F7
:1000700058C0000078C0000054C0000052C000000A
:1000800050C000004EC000004CC000004AC000003C
:1000900048C0000046C0000044C0000042C000004C
:1000A00040C000003EC000003CC000003AC000005C
:1000B00038C0000036C0000034C0000032C000006C
:1000C00030C000002EC000002CC000002AC000007C
:1000D00028C0000026C0000024C0000022C000008C
:1000E00020C0000011241FBECFEFD1E2DEBFCDBF84
:1000F00000E00CBF12E0A0E0B2E0EEE4F7E000E0C8
:100100000BBF02C007900D92AA30B107D9F722E0C9
:10011000AAE0B2E001C01D92AA31B207E1F78AD08D
:1001200014C36ECF82E084BD85BD97EC97BD98BDAA
:1001300080936E0085BB81E090E00895F3DF80E658
:1001400080937C008DEA80937A0083E080937B002B
:1001500008951F920F920FB60F9211240F900FBEA9
:100160000F901F9018951F920F920FB60F921124A7
:100170000F900FBE0F901F9018950F931F93CF9362
:100180008C01DC011496CC91C13079F461E070E00F
:1001900082E090E073D1382F292FF8014581DC01EE
:1001A0004C93468111964C931AC0C230C1F461E061
:1001B00070E084E090E062D1FC01382F2F2FD8014D
:1001C00015968C911597808316968C91169781833E
:1001D00017968C911797828318968C91838360E091
:1001E0007C2F832F922FCF911F910F910895CF9342
:1001F000DF93EC0161E070E088817BD08B8361E06C
:1002000070E0898176D08B8361E070E08A8171D063
:100210008B8380E090E001C00196883C9105E4F377
:1002200061E070E080E065D08B8380E090E0DF915A
:10023000CF910895CF93DF9300D01F92CDB7DEB753
:1002400080E03CD086D07ADF80911002909111023C
:10025000892B29F098D010921102109210028091EF
:100260000E0290910F02892BC1F08091140290919F
:10027000150283DF009114021091150261E070E015
:1002800084E690E0FBD09093150280931402C8019D
:10029000A7D110920F0210920E02AE014F5F5F4F76
:1002A0006FE382E004D0CE010196A1DFCDCFFA0149
:1002B000962F90958083618392830895789481111D
:1002C0000AC087E084B981E085B992ED9CBD8DBDFF
:1002D00081E090E008958F3F49F488E084B981E09F
:1002E00085B980E48CBD81E090E0089580E090E0E5
:1002F000089595B19E7F95B98EBD80910C02909125
:100300000D02892BD1F310920D0210920C02613074
:10031000710511F48EB50895672B29F085B18160C0
:1003200085B980E0089581E008951F920F920FB67D
:100330000F9211248F939F9381E090E090930D0290
:1003400080930C029F918F910F900FBE0F901F9082
:10035000189561E070E084E690E090D090931502EB
:100360008093140278941092C50083E38093C400B4
:10037000E1ECF0E08081886D8083E2ECF0E0808148
:10038000866080830895CF93DF931F921F92CDB72D
:10039000DEB72091C6002093060280911202909150
:1003A0001302E0911402F0911502E80FF91F208367
:1003B00080911202909113020397A9F4E091140224
:1003C000F09115028081853571F481818A3A59F462
:1003D0008281898383818A83CE0101968AD1909319
:1003E0000B0280930A022091120230911302809135
:1003F0000A0290910B022817390741F4892B31F03A
:1004000081E090E090930F0280930E02809112029F
:10041000909113020196909313028093120281E04F
:1004200090E00F900F90DF91CF9108951F920F925F
:100430000FB60F9211248F939F9381E090E09093D9
:100440001102809310029F918F910F900FBE0F9019
:100450001F9018951F920F920FB60F9211248F9331
:100460009F9381E090E090930802809307029F9110
:100470008F910F900FBE0F901F9018950F931F93A1
:10048000CF93DF93869F8001879F100D969F100D5D
:100490001124C8010DD0EC01009721F0A80160E003
:1004A00070E044D1CE01DF91CF911F910F9108955B
:1004B0000F931F93CF93DF938230910510F482E066
:1004C00090E0E0911802F091190220E030E0A0E005
:1004D000B0E0309719F140815181028113814817B2
:1004E0005907C8F08417950769F4109731F01296F0
:1004F0000C93129713961C9327C000931802109325
:10050000190222C02115310519F04217530718F4BA
:100510009A01BD01EF01DF01F801DBCF21153105A3
:10052000F9F0281B390B2430310580F48A819B8136
:100530006115710521F0FB019383828304C09093C0
:10054000190280931802FE01329644C0FE01E20FA8
:10055000F31F8193919322503109398328833AC044
:100560002091160230911702232B41F420910202B0
:10057000309103023093170220931602209100025B
:10058000309101022115310541F42DB73EB740915C
:10059000040250910502241B350BE0911602F091E4
:1005A0001702E217F307A0F42E1B3F0B2817390799
:1005B00078F0AC014E5F5F4F2417350748F04E0FBF
:1005C0005F1F50931702409316028193919302C0CC
:1005D000E0E0F0E0CF01DF91CF911F910F910895FE
:1005E000CF93DF93009709F481C0FC013297138207
:1005F0001282A0911802B0911902109781F4208103
:100600003181820F931F2091160230911702281713
:10061000390751F5F0931702E093160267C0ED0118
:1006200020E030E0CE17DF0740F44A815B819E0175
:1006300041155105F1F0EA01F5CFD383C283408122
:100640005181840F951FC817D90759F48881998162
:10065000840F951F0296918380838A819B81938367
:1006600082832115310529F4F0931902E0931802D1
:100670003DC0E901FB83EA8349915991C40FD51F1D
:10068000EC17FD0761F480819181840F951F02961C
:10069000E90199838883828193819B838A83E0E047
:1006A000F0E012968D919C911397009719F0FD013F
:1006B000DC01F7CF8D919C9111979D012E5F3F4FEB
:1006C000820F931F209116023091170228173907C5
:1006D00069F4309729F4109219021092180202C09E
:1006E00013821282B0931702A0931602DF91CF916A
:1006F0000895FC0188279927E89421912032E9F395
:10070000293010F02E30C8F32B3239F02D3231F46D
:10071000689403C012D0820F911D219120532A307A
:10072000C8F31EF4909581959F4F0895DC0101C098
:100730006D9341505040E0F708957AE0979F902DD7
:0E074000879F802D910D11240895F894FFCF0E
:0A074E0000001A0220002001000044
:00000001FF
